:020000040000fa
:10000000f0ff01204107040131ba040135ba0401af
:100010003dba040141ba040145ba040100000000e0
:10002000000000000000000000000000719c0401be
:1000300039ba040100000000713804013590040150
:10004000cb3603014d5a0401cb36030109b004013c
:10005000cb360301cb360301d1940401cb36030127
:10006000cb360301cb360301cb360301cb3603017c
:10007000cb3603015d550401cb3603014137040142
:10008000cb360301cb360301cb36030121950401a6
:10009000cb360301cb360301cb360301cb3603014c
:1000a000cb360301cb360301cb360301cb3603013c
:1000b000cb360301cb360301716d0301cb3603014f
:1000c000cb360301e1bf0301cb360301cb3603017d
:1000d000cb360301cb360301cb360301cb3603010c
:020000040000fa
:020000040004f6
:045f8800ffff000017
:020000040000fa
:020000040004f6
:045f8c0000400e843f
:020000040000fa
:020000040004f6
:045f900038fcec5f8e
:020000040000fa
:020000040004f6
:045f94003844101469
:020000040000fa
:020000040004f6
:045f98000300007191
:020000040000fa
:020000040004f6
:045f9c000000000001
:020000040000fa
:020000040004f6
:045fbc0000000010d1
:020000040000fa
:020000040100f9
:1040000000101800cc00002000000000000000009c
:10401000f8b500bff8bc08bc9e467047356e040179
:10402000f8b500bff8bc08bc9e467047116e04018d
:020000040000fa
:020000040100f9
:08403000acd002000100000009
:020000040000fa
:020000040100f9
:104038000000000000000000000000000000000177
:1040480080320000000000000000000000000000b6
:10405800000000000028010000000000000000002f
:104068000000ffff000000006023040020020000a1
:10407800000000000000000000000000101e020008
:104088002001000000000000000000000000000007
:1040980020050500fc0000000000000000000000f2
:1040a8000000000007030d000000000000000000f1
:1040b800000000000000000060010300fec00000d6
:1040c8000000000000000000000000000a010b00d2
:1040d8003ffe00000000000000000000000000009b
:1040e80010010c00000000000000000000000000ab
:0840f80000000000ff000000c1
:020000040000fa
:020000040100f9
:1041000000800120991f01009d1f01009d1f0100db
:104110009d1f01009d1f01009d1f01000000000068
:104120000000000000000000000000009d1f0100d2
:104130009d1f0100000000009d1f01009d1f010048
:104140009d1f0100000000009d1f010000000000f5
:104150009d1f01009d1f0100cde500009d1f010076
:104160004509010045a100009d1f01009d1f0100a0
:1041700045a9000025e5000039ab00007966000084
:1041800000000000b9b400009d1f01000000000005
:10419000000000009d1f01009d1f01009d1f0100e8
:1041a00030b5dff8204d08e010f8015b93b285eae6
:1041b000232534f8153083ea02220b46591e002bc2
:1041c000f2d190b230bd0246002010b5002305e0c8
:1041d00022fa03f404f0010420185b1cdcb28c42c8
:1041e000f6d3c0b210bdf8b5dff8dc6c054606f2b8
:1041f0009d440322a3786778e07806f2a14143ea60
:10420000001347eac30705f8017b284601f0f6fdd5
:10421000237a062206f2a641eb702d1d284601f0f6
:10422000edfde179207841eac0110c20a971f2bdc1
:10423000dff8982cdff8901c38b5937804460020fe
:1042400001f29d45032b44d8dfe803f0021f3f3ff6
:10425000aa78e8782b7801f2a64142ea0012687841
:1042600040ea820043ea400323702879ea7900f0ab
:104270003f0040ea8210032260702b7ae01ca3709a
:1042800001f0bcfdeb7ba3711de0a978e8782a78ea
:1042900041ea0011687840ea810042ea4002227057
:1042a0002879e97900f00f0040ea81106070297ade
:1042b000a170687ae070a97a0020607101f00f01a6
:1042c0002171e97ba171072032bd2046bde8324053
:1042d00089e732bddff8f81b01f14000f8b502783c
:1042e000dff8e44b04f29145012a02d0022a02d001
:1042f00003e0002202e0012200e02a7a2a734078db
:10430000401e03280bd8dfe800f002040608002056
:1043100006e0012004e0022002e0032000e0e8794a
:10432000687300200022a873ea7301f13003d6b24b
:10433000521c9f5dd6b2c019032ef8d380b200285c
:1043400004f2a1400cbf04f29a41303101f02df982
:1043500029780020e87404f2a6402975062101f0ae
:1043600059fd0020e876f1bddff85c1b48f26300e0
:1043700038b501f5327201f525741378632540eaea
:10438000832000232570dff8485ba37001f2972398
:10439000000a60701078d0b1a88a01f29923e07009
:1043a000000a20711078022802d0032807d00ee0fe
:1043b000508801f29b236071000aa07107e001f2ae
:1043c000ca2002681a6042685a6001f2a123e88a92
:1043d0009d1c1870000a58700a2005f8010bfff7a1
:1043e00079ff2846fff724ff2844041be0b232bdc2
:1043f000dff8e00a00210170c1720173c1817047ca
:104400002de9f047b1f8009090464d680646b9f1a5
:10441000080facbf012400240022382188f80020b6
:1044200001f018fd002c00f0308105eb090006f1c9
:10443000280710f8021d0022407841ea0021284692
:10444000f981a9f10201fff7abfef98988420cbf9f
:104450000120002088f80000697828787388090214
:1044600041ea0041a878014361f30903890a738096
:104470003288880961f30d22c909328001f00102f6
:104480009201490842eac01201f0010349080801fb
:1044900042ea431200f010000243e81c42ea5101d4
:1044a00031700178427841ea022101f00702c9081f
:1044b00001f00103490842eac30201f0010449087e
:1044c00001f0010c42ea0412490801f0010a49080e
:1044d00042ea4c1201f0070ec90801f0030542ea56
:1044e0008a1289080b0303f4405342eace1289086a
:1044f00042ea85221a4342ea8132b280b18801f051
:104500000703042b80f29280c1f30013002b40f0cc
:104510008d80c1f38123012b1cbf890b012900f081
:104520008580930a811c03f0030311f8010b022b11
:104530004ff0080cb07104d0032b08bf4ff0120ce1
:1045400001e04ff00c0c900b022804d0032808bfa8
:104550000cf10a0c01e00cf1040cc2f38014002ce5
:104560001cbfc2f38124002c02d008b1acf1020cb4
:104570003088c0f3052020b9c2f3c00008b10cf1a7
:10458000060c7088c0f30900604480b28145a9eb35
:1045900000003873acbf01240024002c75d0881ca7
:1045a000022b02d0032b0ad015e000f088f83281ec
:1045b0000278417842ea0122811cb2810de000f0cc
:1045c0007ef806f10c01328102680a6042684a6096
:1045d00000f1080101e00020b072b088820b022acd
:1045e00002d0032a0bd016e000f06ff80220b0755d
:1045f0000a784b78891c42ea032232830de000f0ee
:1046000064f80320b07506f1180208681060486865
:104610005060083101e00020b075b088c0f38122fd
:1046200032b9800b02d0b08a308105e000242ce042
:10463000800b04bf3089b082b088c0f3c00000b3e3
:104640003088c0f30520e0b911f8010b00f0070233
:10465000c008c30003f018031a43800842ea40125e
:1046600086f820208a78c87842ea0022487811f833
:10467000043b40ea022043ea0023736211f8012b55
:104680003a707088c0b2b880b96098f80000dff85e
:10469000401818b94a680024521c4a60b27d022aa8
:1046a00001bf338b4ff6ff729342002400d01cb938
:1046b00010b18868401c88602046bde8f0870a7801
:1046c0004978b37242ea01227047c0f3801028b9da
:1046d00008784a78891c40ea022000e03089b082dc
:1046e00070472de9f0410446dff8e407858a268902
:1046f0004ff6ff78ae4218bf464515d1a17a03297f
:1047000021d100f12501082204f10c0001f0a6fbe3
:1047100050b9a07d022807d1a18aa94203d14645fc
:1047200018bf454518d1278b207910f0070f08d105
:10473000dff89417b8b291f89114bde8f04102f097
:1047400055bcbde8f0810229eed1a189c08a814221
:10475000dfd0a27d022ae7d1278be9e7f0b5dff8a9
:10476000ec0b816908784a7840ea022000f00702e1
:10477000c00800f00103800842eac30200f001040f
:10478000400800f0010542ea44120009830203f4e4
:10479000406342ea85120009dff82c471a4304f10e
:1047a000240342ea803212f0070f1bbf02f0070019
:1047b00003280120002018731006400f150600f092
:1047c0000100ed0e12f0070fd87205f00105dff8b9
:1047d000080c5d7305d105788d700678761c06701f
:1047e00004e045788d704678761c46700320c2f34d
:1047f00081259872900a10f00300a0761cbf052650
:104800009e72022802d003280bd015e0987a4f1c24
:104810000e5c385c46ea0026a6839e7ab61c9e7221
:104820000ae0987a04f11c06084407683760476874
:1048300077609f7a08379f72900b187022d0002df6
:104840001cbfc2f38015002d02d19d7aad1c9d7254
:10485000022802d003280ad014e0987a0c5c491c84
:10486000085c44ea00245c809c7aa41c09e0987ae5
:10487000084404f1260104680c6044684c609c7a8a
:1048800008349c72c2f3c00010b1987a801d9872ef
:10489000f0bd00002de9f84f0020dff82c668df800
:1048a00000008246dff82896002409f13e0000252a
:1048b0004179b07a7f230322a646dff8ecbb00f0f3
:1048c000070c891c000791fbf2f1dff8000648bfd6
:1048d000ccf1000c90f80480027a27e05ffa8af0ad
:1048e00020b970196d1cc47a4ff0080ac2f1080093
:1048f000e7b2c7402006c00f04d001209040401e00
:1049000067ea0007707c67449440aaeb020a7fb212
:1049100000b97f007f427fb2002f48bf00279f422f
:104920000bf80e700ef1010eb8bffbb2c645d5d321
:10493000202ba8bf1f2300201c460be01bf80020e3
:10494000121b0bf80020d2b2202aa4bf1f220bf8a2
:104950000020401c4045f1d3c8b250b12028acbf64
:104960001f24ccb2b8f1000f03d04146584601f0e5
:1049700071fa06f1880518212c7006f18e04204684
:1049800001f048fab8f1000f04d0424659462046db
:1049900001f034fadff8180c4178491e03290dd8cc
:1049a000dfe801f002040709002205e001236b7033
:1049b00006e0022103e003226a7001e0b17c697025
:1049c0000078012802d0022803d005e00022aa7056
:1049d00004e00121a97001e0f07ca87000219df89d
:1049e000000009f12d02c3b2401cd35c1944c3b2cc
:1049f000032bf8d389b2002906f18b0007bf0322ed
:104a000006f11401032209f12d0101f0f7f9092241
:104a100009f11c0106f1a60001f0f0f996f82f004b
:104a200000b1012006f1af01487000200870bde818
:104a3000f18f2de9f54fdff8944482b023790022fd
:104a40009446002601936379647a96460025904641
:104a500000940024914617e0e8b220b9e0b2641c4b
:104a600011f8008008256d1e08f0010b0af0010006
:104a700010ea0b0f4fea580818bf521c7f1cf8b2ff
:104a80009842e9db09f10109019f5ffa89f0b84218
:104a90000fdaf0b238b902985ffa8cf60cf1010c1b
:104aa00010f806e00826f2464fea5e0e761e002752
:104ab000e5e79df80c0001280bd1009808b90c21fe
:104ac0000091009b009853fa82f35b1e93fbf0f079
:104ad000121ad0b204b0bde8f08f2de9f041dff832
:104ae000ec730478be794378857840f6fc7c2146e7
:104af00011fb06f159431cfb05fc08bf90218c44b7
:104b0000acf1010cbcfbf1f2398872434f089742bb
:104b100004d20127dff8348888f8147006fb01f707
:104b2000974238bf3a462f010c214d4304fb02f156
:104b30005943491bb1fbf7f1b1f5807f05d3921bb7
:104b400062435a43521bb2fbf7f1c078091a88b28c
:104b5000bde8f081f8b505460c462878dff83c6bd7
:104b6000c0f3001242ea4002c0f3401141ea4201a0
:104b7000c0f3801242ea4102c009298840ea42009b
:104b8000c1f3052141ea80116888c0f3090040eab9
:104b90008120a070000a6070000a2070dff8ac0766
:104ba0008169f078a0b12b883278c3f30520002802
:104bb00006d1e01c01f022f93678e31c1e440ee019
:104bc000921fe01c01f01af930782044c61e06e05e
:104bd0003278e01c01f012f93178e01c4618aa8df9
:104be000296b304605f1340701f008f9a88d3978b2
:104bf0000644304601f00ef9397800222046751837
:104c0000291bfff7cdfa78802870000a6870a81c6d
:104c1000041ba0b2f2bdf8b5ab4cdff8845a207e7d
:104c2000dff8806a48b102f0c7fb29783368b0fb2f
:104c3000f1f201fb12025a433ce0a97a0127d4f8b1
:104c4000800007fa01f1884207d1b4f884200020df
:104c5000e067521ca4f8842002e00021a4f884102c
:104c60002879b4f88410884205d295f9052007fa0e
:104c700002f2c4f88020a18b4ff6ff7399420bd14a
:104c8000287e48b102f098fb95f905108f40b0fbe3
:104c9000f7f207fb120207e002f08efbd4f8801057
:104ca000b0fbf1f201fb12022b78306831685b1c1b
:104cb00042434b4304f5966043600260f1bd2de929
:104cc000f845dff8048208f16c0508f1a601aa7f17
:104cd00008f18b00fff7adfe697f022942d043d374
:104ce000042901d03cd33fe00422012310268df893
:104cf0000000764f8df80360f879dff850668df884
:104d00000120307568468df80230fff7e6fe00b9e5
:104d10008520317d08f12e0cbcf80e209cf8003067
:104d2000b5f80ce010fb01f16981297adb1c61f315
:104d30000d22acf80e209cf80320f48a002a6a8920
:104d40001cbf00299b1f9b1cdbb2a4eb0e0ad21ace
:104d500091b25145a6bf0121a4eb0e02002109e04a
:104d60000322c2e70222c0e701220029bdd10423a9
:104d70000826bce76a819cf80e2002f0f0028cf84d
:104d80000e2039b198f817e0bef1000f04d04ff0b3
:104d9000010e01e04ff0000e02f0ef0281f001047d
:104da00042ea0e1298f818e002f0df0242ea4412da
:104db0008cf80e20bef1000f02f0bf0218bf4ff0ba
:104dc000010e42ea8e1202f07f0242eac1126989a4
:104dd0008cf80e20bcf81020acf83a1061f30902f0
:104de0005918acf81020b269ae894118491e164412
:104df0002e606e8991fbf0f2501e88f8af009b196f
:104e0000d6b206b90122d0b210fa83f19df803c0e0
:104e1000491ebf799df8026091fbf0f09df80010eb
:104e200080b29df801e000eb0c04e4003846a41dbc
:104e3000d2b248439bb27443714648439df8001078
:104e400008bf902000eb4404641eb4fbf0f46743f9
:104e50000c204f4308f1b4010efb07fe00fb16eed9
:104e60003601befbf6f6a6eb0c00424308f13c000f
:104e7000d21a2a71fff76efea8f8b200e88868839c
:104e8000bde8f185104b30b5b3f8b21085b003f131
:104e9000b4040125adf8001000210194042403900e
:104ea00003f188008df808508df8105083f8bd1478
:104eb00083f8384002f0f2fa684602f0f5fa05b0dd
:104ec00030bd0000d41401001c850020789800201b
:104ed00008540020e48700202de9f84fdff87044e3
:104ee000207a002847d004f1340704f17406387999
:104ef00058b901210022397184f8b120f080b260e4
:104f0000fff7c8fc207a002835d03979dff83c84d7
:104f100009290fd1607a00222272002840f02681f0
:104f2000d8f80c20002a26d00021e2209047207ad1
:104f3000002820d03879dff8889b04f59665dff8e3
:104f400010ac072819d199f8082094f8b1009042c4
:104f500026d3607a0021217208b1617204e0d8f88a
:104f60000c200ab1e9209047386810b1008801f0a0
:104f70007fff207a002800f05f813979082961d10c
:104f800094f8b10099f808108842c0f07480607af3
:104f90000022022322722370002845d0627249e069
:104fa000401c01234ff0000ce64684f8b1003b7131
:104fb000a6f806c0c6f808e099f80b10002932d10f
:104fc00004f12e03121a9878d2b2002804bfa17ef1
:104fd000022928d199f80e3004f18b009a4206daa2
:104fe00086f815c00322514600f008ffc1e7042ae5
:104ff000bfd8dfe802f004040a0f1300b9e7717d9f
:10500000002910d086f815e0ece7707d01280add54
:10501000012107e0707d032805db03e0707d042893
:1050200001db03217175b0e0d8f80c2012b100212a
:10503000e9209047386810b1008801f019ff207a04
:10504000002898d039794ff0010b06294fd1b1884b
:10505000032270883a714118b180b8f8162089b2dd
:10506000914211d23178002028606860491c31706b
:10507000fff725fe38e0401c002184f8b100032032
:1050800038712960696091e099f9090099f8011077
:10509000f2680bfa00f041434318934238bf501aac
:1050a000f0600021607a217208b1617203e0d8f8e3
:1050b0000c2002b19047386800281fbf717d4279eb
:1050c00002f007028a420fd0427961f30202427174
:1050d000707d48b939680322881c514600f08efe65
:1050e0003a68108801f0c4fe207a00283fd0397950
:1050f000022947d1207e18b1f188491cf1802ce0ab
:10510000f088401cf080b068401cb06099f8001036
:10511000884215d399f80210b0fbf1f201fb12009e
:10512000d8b999f90900f1680bfa00f399f8010070
:1051300058431a188a422ebff360081af0600ce038
:10514000f1684900f16099f90400f2680bfa00fb7c
:10515000934588bf9346c6f80cb0f08899f80710bd
:10516000884236d3607a0022227208b1627263e00c
:10517000d8f80c20002a5fd00021e1209047207a47
:10518000002859d0397901290dd194f82e10032027
:10519000002238713270b180fff791fdfff73bfdbf
:1051a000207a002848d03979032945d1dff8380a18
:1051b0000068237833b1022b0ed0032b10d0052bbf
:1051c00018d039e0dff8ec4b2a682168081810186d
:1051d0002fe001203871d8e76068dff8104a02e05c
:1051e0006068dff8d44b226869682b6810180818cb
:1051f00018181ee06a6863682d6840f6c417d41852
:1052000029190e1abe42a8bf084612dac31a9342e1
:1052100038bf204608d3dff88c24c01a1168b3fbce
:10522000f1f301fb03000818dff8884b2168081828
:105230002818bde8f24f25e6bde8f18f70b5444d62
:1052400005f130063078002804bfa97e022907d175
:10525000a88b01f0e4fd04001cbfe089002809d1ff
:10526000dff8584b0322dff8e818a01c00f0c6fd59
:10527000002000e02046706060790622a11dc0f386
:10528000c300a87205f10b0000f0b8fd607903229d
:10529000c0096874617901f00701a974207ba11c21
:1052a00000f00100e87405f1140000f0a7fd30786b
:1052b000002804bfa97e022908d1aa8b4ff6ff73ec
:1052c0009a4203d0706808b9012000e00020e87518
:1052d00070bd38b540f2b515a9421c4b18d21c4c14
:1052e000227a22b1da68d2b10121e22014e0986179
:1052f000d982fff733fafff7a1ffdff8c40a0122d2
:1053000090f8511000202272217684f8380031bdc7
:10531000da6822b10121e820bde83840104731bdec
:1053200040f2b513994200d3704780b5074a9061a7
:10533000d182fff713fafff781ff0548012100230f
:105340000172417280f8383001bd0000c453002062
:105350001c850020dff8742a117a002900d17047db
:1053600070b502f12f035c7a042c33d10178012946
:1053700004d9891e0bd0491f18d025e0012602242c
:1053800082f8bd645c7216704068506070bd507adf
:105390000023137208b1517270bddff8340ac2687d
:1053a000c2b10121f120bde870401047197844686e
:1053b000546021b10420107005225a7270bd022180
:1053c000062411705c7270bd0125092115704068ba
:1053d0005060597270bd0000415400202de9ff4714
:1053e00082464ff000089af80050002d58d0dff8a0
:1053f000e47910243e468946317800291cbff07ab2
:10540000002836d0a94231d1022d27d17088baf8b0
:10541000021088422ad166b3684631460a2200f05b
:10542000edfcb47adff898194c4591f847403946bd
:1054300008bf4ff00108f61b0c2296fbf2f20c207d
:10544000424307f10c0002f0d1f9384669460a22be
:1054500000f0d4fc87f80a90fc7221e008220af1df
:105460000201b01c00f0fafc0028d4d00c36641ef7
:10547000c2d1b422394607f10c0002f0b7f900207e
:105480000021002287e80700384651460a2200f032
:10549000b5fc87f80a90dff8280990f84710f972f0
:1054a000404604b0bde8f087d4970020072a2de9d4
:1054b000f04104460e4612d100f060f8dff81029e2
:1054c000517d07f03f0861b984f8048000f04cf882
:1054d00000f070f8f078e0732846bde8f081002510
:1054e000fae700f00cf808b90025efe700f007f83c
:1054f0000228e9da00f056f800206070e6e706219d
:105500003846fef760be072af8b504460e4616d1a7
:1055100000f034f8dff8b828517d91b907f00f009a
:10552000207100f021f800f045f8a07a0021e17226
:1055300000f00f00a072f078e0732846f2bd00255d
:10554000fbe70321fff7dcff08b90025e9e70321aa
:10555000fff7d6ff0228a8bf07f00700e0da00f047
:1055600021f800216170dce7bf090621e771b078fe
:10557000f61c207204f1090000f04cbc30780125c3
:1055800000f001014008217000f00302800800f0e3
:105590000f0300096270a3700321e0707778201d6b
:1055a00000f038bc201ddff8a815032200f026bc4f
:1055b000465400200322314604f1090000f01ebccd
:1055c0000c2af8b504460e462bd116f8010b01251e
:1055d00000f00701c008617000f00f020009a2701e
:1055e000e0700321201d00f015fcdff8e427507d5a
:1055f000c8b903223146201d00f000fcf078361daa
:1056000006223146207204f1090000f0f7fbb07960
:1056100000f07f01c009e17120700020e07328468e
:10562000f2bd0025fbe7307800f01ef800f01af814
:10563000c719b07800f018f838180228b8bf00254c
:10564000dcdb307800f010f800f00cf8c719b07807
:1056500000f00af838180328cbdafff7a3ff002080
:105660006070cbe7074670780821fef7acbd0000fc
:1056700038b50d4c0023a578032d0cd8dfe805f0d4
:1056800002050808fff712ff04e0fff73cff01e006
:10569000fff796ff0346184632bd00004a850020fa
:1056a0003b54002088960020789800202de9f04f88
:1056b00085b004466846dff8147701f0e2fe07f58e
:1056c0009360dff8fc5601f03fff204607f5307687
:1056d000fff707f8a188002007f53679dff8f08694
:1056e0004ff6ff7a11f0070f72d0c1f38121002924
:1056f000ab8a0cbfa18a2189994218bf514521d19b
:10570000a17a00295fd0022914d003295ed1082292
:1057100005f1250104f10c0000f0a0fb90b9a1797e
:1057200004f11600fff75afe002851d0e868401c2b
:10573000e86023e0e88a504504d0a1898142eed098
:10574000514545d0a98a2869401c286151451cbf94
:105750002089504506d088421fbfd8f8081000297c
:105760004846884705f14901487900281cbfd8f808
:105770000420002a02d0f18a48469047207900f0a0
:10578000070001281cd1307d09eb00010b78402b6c
:1057900004bf4a78022a03d1012305f14904a37109
:1057a0000b78f28a101adff8302680b2402b01bf46
:1057b000497801290123d371122804bf0120d07137
:1057c00005b0bde8f08f05f14901c8780028b9d0cf
:1057d0002079dff808b600f0070003283fd1317dbb
:1057e00019f801000a2804bfa27d022a19d108462f
:1057f000f18a091a4a1e381800f2d921d2b201a83a
:10580000fff736ff68b1002205f11c0102a8fff77f
:1058100010f9062805db9bf80410208b01aa01f083
:105820006bfb307d19f8001007299bd1ea8a52459d
:1058300098d03078002895d1dff8ac130f6801f0cc
:10584000bbfd95f84920dff89815c7194a43b0fb0e
:10585000f2f002fb107701227760327082e7d8f80d
:10586000101011b107f592608847d8f8002012b1e6
:10587000f18a484690479bf800000028eed007f2d6
:105880006b273978002907d1e88a504504d0fef704
:105890006bfdb8700121397064e72de9f04192b0d9
:1058a00005466a46294604a8fef7aafd2b7a044657
:1058b000012b5ad1bdf814100020dff804359a8a64
:1058c000c1f3812100290cbfbdf82410bdf81810c8
:1058d00091424ad19df81a1003f1430689b1022979
:1058e00009d003290ed1082203f1250107a800f0f1
:1058f000b5fa002803e0bdf81c00d98a884234d1eb
:1059000001e0707a88b33178002003228df8080016
:10591000891c91fbf2f1cab2202aa6bf1f238df881
:1059200008308df80810bdf84610002cdff8b434ac
:10593000adf804101dbf9df81000c00980f00100f3
:1059400001208df806009df800000028186814bf9b
:10595000022103218df8071001218df80910ea6852
:10596000821801a8039201f053fd002c00f09b80e7
:10597000bdf81010dff85444c1f3052630001cbff9
:1059800094f8bd0400280ad0b4f87a10e06f4a1edb
:105990000021a4f87a20401e84f8bd14e067287a1c
:1059a00001280cbf042002202070e968207a616081
:1059b00060b194f83800042803d1032084f838003b
:1059c00004e0052804bf072184f8381004f5327775
:1059d0009df826003978884218d180b1022809d074
:1059e000032813d1082204f2ca210aa800f036facb
:1059f00060b904e0bdf828007988884206d1ba7af7
:105a00009df81600824201d1300007d1fef7f0fc6c
:105a100038460df126010a2200f0f0f9f87ab0427a
:105a200041d104f5367876b99df816001099b87210
:105a30006868091acd1eedb2c11c2a46404600f026
:105a4000ddf9fd813d73bdf81250f88940f2b512c1
:105a5000c5f309054119914223d210992a464044c1
:105a600000f0ccf9bdf81010f889090a01f03f01e7
:105a7000491cf9722d189df81000fd81c00912d043
:105a80009df810109df81020090904f28e4001f0d5
:105a900001010170920902f00102427004a8fff7af
:105aa00005fefef7a5fc12b0bde8f081c7494268cb
:105ab0004a60007807280cbf022001200870704758
:105ac0003c540020c14a4368117a536001b392f8f4
:105ad0003810052917d1c178022907d10088b2f8fa
:105ae000863098420ad10621022004e080780128fd
:105af00004d10821032082f838100de0072082f835
:105b00003800012008e0042904bf032182f838107e
:105b10008078012818bf022010707047704770b558
:105b2000aa4b017803f28f44a17000f149010a7871
:105b3000e2704d78032225718e7800f14c0103f25a
:105b40009540667100f05af92378637070bd0000cb
:105b5000809600207047704778b50e46a5b0054680
:105b6000002208219a4c01f099fe00f0b7f9204676
:105b700031461422954e00f041f9304691494ff4d8
:105b8000986200f03bf9ff22c021924801f0d2ff59
:105b900000f023f804f11c00c6f88010294601f03b
:105ba00013fc1149086806f59761706008600120d0
:105bb000087104210df1010000f02cf96a464ff440
:105bc0008671894800f049fb9df8040026b025281d
:105bd0000cbf01200020607570bd794a012192f947
:105be0003d00814070470000ec0000408c96002092
:105bf0002de9f84f754d724e05f59764237963b121
:105c0000092206f11c0105f1a60000f0f7f805f1e4
:105c1000880001f043fc0021217101f0f7fb6a4884
:105c2000704a724bd0f800a07149d2f80090186801
:105c3000d1f8008006f1330e8144c1442f786b689f
:105c4000052f3946aaeb03003a4637d8dfe807f0bc
:105c50003803060b1122674f3f682ae040452fd3d7
:105c6000052243442ce0544f3f68b84228d3052214
:105c700022e0484524d3287a01224b4400b395f80a
:105c8000380005281cd1072085f8380037687f1cac
:105c9000376015e09ef905709ef800c04ff0010bcb
:105ca0000bfa07f7674407f1010c534f3f6807fbf6
:105cb0000cf7b84204d300223b4401e001225346d2
:105cc0002a702a786b609142b8d1287a10b1fff718
:105cd00003f948e005f26a21487828b1002205f569
:105ce00025704a70c97806e0087840b1002205f2b4
:105cf0006e200a7089782a76fff712fb33e005f5eb
:105d000030700278012a07d14268a2eb0a02012a08
:105d100029da0223037001e0022a24d100224ff67f
:105d2000ff730270f08a98421dd0002580220d7109
:105d30004a718d71b28a4872000aca71120a0a72d7
:105d40008872cd729ef819004d738d73002814bfb0
:105d5000c02080200873708b012208740a70030a27
:105d60000d20cb738870206882452fbfaaeb000af4
:105d70004ff0ff31081a82441948bafbf0f5b5b16b
:105d8000284601f07ef9284601f066f9114a1021f3
:105d9000d07a38b1854234bf401b0020d0720c321b
:105da000491ef5d121680e4800fb05152560bde8a8
:105db000f18f0000989600209096002058960020c1
:105dc00008540020140e0100ec0000401c85002047
:105dd000c45300206093002051540020aa89002061
:105de00040420f0094960020200000089c9600205e
:105df0008c960020a0960020889600204ab10000d2
:105e000011f8013b521e00f8013b1cbf11f8013b89
:105e1000f8e77047002201f0abbe30b4002513e074
:105e200050f8042bd30744bfa9f101039a18091fa6
:105e3000042942f8045bfad213468c0744bf15804c
:105e40009b1cc90748bf1d7050f8041b0029e7d1ef
:105e500030bc7047002201f071be0000030000203a
:105e6000521e22bf13f8010b11f801cbb0eb0c004e
:105e7000f6d0521c08bf10467047000080b5c0b273
:105e800002f05afac0b202bd10b5dff85849dff887
:105e9000581920465422fff7b1ff04f11c00dff827
:105ea0004c190922fff7aaff4ff42061dff84009df
:105eb000fff7d0ff4ff4005104f15400fff7caff81
:105ec00001f07afa04f8390f01f076fa6070dff821
:105ed0002409802140220180428010bdd4e7dff8f0
:105ee00004090121002280f84c104283dff80409e4
:105ef0004ff4007101804180704718b501464a1c7b
:105f0000147800208df800400c78012c09d19df800
:105f10000020652a05da11f8013fdff8dc2813704c
:105f200012bde82012bdf8b5dff8c8480b466588f9
:105f3000a8420dd2dff8ac48102604eb00171e7003
:105f40001022581c07f15401fff758ff0020f2bd42
:105f5000f920f2bdf8b50246dff888080e4600f1d8
:105f6000560400f1540120786578a478f9230027bd
:105f7000284320431cd0dff87c58b8b26c88a0427c
:105f800016d20ae07f1c1031bdb2a542f3d2887848
:105f9000cd7828430d7928430ad008889042f1d162
:105fa00031b1102310223370701cfff727ff00233c
:105fb0001846f2bd2de9ff410378e821102b5bd193
:105fc000411c102268460025fff718ffdff824184f
:105fd000dff810384e88b3f8620003f15404002152
:105fe000324608b3afb2b7421ed22788bdf80000d0
:105ff000b4f80ec08742bdf80e0008bfaab26f1ced
:10600000604508d2a8b2a6f10108404503dab242c1
:1060100014bf294639463d461034bfb2b742e1d2db
:10602000e0890028e1d103e0a8b2b04208bf6d1eac
:10603000a8b2904288b289b203eb0014b8bfaab2ea
:10604000904206da521a120104f1540104f164007c
:1060500009e0824209da10018a1a03f1640101445d
:1060600054331201184401f0c1fb1022694604f1b7
:106070005400fff7c3fe0021084604b0bde8f081dc
:106080000246dff86007f0b500f1540400f1560550
:1060900028786e78ad78f9230027304328431ed046
:1060a0000120dff850677588beb2ae4217d20be010
:1060b0007f1c1034beb2ae42f3d2a078e6783043f3
:1060c000267930430bd0012026889642f0d134b196
:1060d00001f8010b04f10d02107800230870184636
:1060e000f0bd10b5dff80c270b461488a0420fd284
:1060f00000eb8000dff8f8160144b1f8030038b176
:10610000052405221c70581cfff778fe002010bde6
:10611000f92010bdf8b50c46f923dff8d416002598
:1061200001e06d1c491ddff8cc66aab23788ba427f
:106130000dd2b1f8032052b10e888642f1d131b1af
:10614000052305222370601cfff758fe0023184624
:10615000f2bd2de9fc410378e821052b3fd1411c1c
:10616000052268460026fff749fedff88826dff89b
:10617000803617881d4600243a46b0b2b8421ffa4e
:1061800086fcb1b22ed2b5f8030058b3b5f800e0e2
:10619000bdf80080c645bdf803e008bf0a46711c83
:1061a000864507d20cf10100b84203daba4214bfa7
:1061b00034460c460e466d1ddfe7824209da02ebdb
:1061c0008200591da21a02eb82020144184401f018
:1061d0000dfb052269462846fff710fe0021084600
:1061e000bde8f6819445a0b200eb8006a4b2b8bf2a
:1061f0000a469d199042e0da121b581d02eb8202fa
:1062000029463044e3e780b5a6b0411c0b788df8f1
:106210000030007801281dd1032b1bda012bdff899
:10622000c40580f8403008bfaa2002d0022b03d159
:1062300055208df8050002e0ff218df805100122a0
:106240004ff4ba718df8042001aadff8b00500f010
:10625000ebfa00e0e82027b000bdfeb50d46dff800
:106260009c158842144600f06682b0f5907f76d087
:10627000dff88c25904200f0ae82dff88815884266
:1062800000f0ca81b0f5857f3fd0dff87c259042d1
:1062900077d0dff87815884200f06481290018bfb4
:1062a000f92640f09982dff84c1547384b880a8868
:1062b000dff83015dff8387501f1420600f0a980eb
:1062c000801e00f0ab80c01e00f0ad80801e00f08c
:1062d000b680401e00f0bd80401e00f0bf80401e12
:1062e00000f0c380801e00f0c480801f00f0ac80ee
:1062f0001f3800f0c580883800f0c780801f00f08c
:10630000c980c01e00f0ca80401e00f00581801eba
:1063100000f0c980401e00f00481401e00f0c880db
:10632000401e00f08580401e00f0c980401e00f035
:10633000cb80401e00f0cc80401e00f0cd80401e7f
:1063400000f0ce80401e00f0d380401e00f0d580cb
:10635000083800f0dc80401e00f0d480401e00f0c1
:106360002c81401e00f02e81401e00f03081801ee6
:1063700000f0dc80dff8f4cab0eb0c0000f07281b2
:10638000401e00f0d880401e00f06681001f00f023
:106390007281401e00f07481401e00f07681401e24
:1063a00000f07881401e00f07a81401e00f07c8170
:1063b000c01e00f07e81401e00f08081801e00f033
:1063c000bf80401e00f08581801e00f08781c01fc5
:1063d00000f08981401e00f09181401e00f0228172
:1063e000401e00f08681401e00f0a581801e00f056
:1063f0008c81401f00f01081801e00f0b380401e91
:1064000000f0b580401e00f05e81d53800f08b8131
:10641000e1e100f005fa11f8380f58e100f000fa58
:1064200011f8390f53e100f0fbf911f83a0f4ee182
:1064300000f0f2f911f81a0f107048780ae100f034
:10644000eff911f83b0f42e100f0eaf911f83c0fc7
:106450003de100f0e5f911f83d0f38e100f0dcf91d
:1064600011f8140f10704878f4e001202070f07ad1
:1064700047e100f0d1f911f8160f10704878e9e003
:1064800000f0cef911f8470f21e100f0c9f911f839
:10649000330f1ce100f0bcf9086828e100f0b8f9fe
:1064a00051f8040f23e100f0bbf911f8340f0ee1ad
:1064b0000120631c207011f8440f187039e1092580
:1064c000092225701c3131e1012201f149000ae065
:1064d000012201f1350006e0012201f1360002e05f
:1064e000012201f1370022700278611c0a7020e15c
:1064f0000122227001f069f805e10120207001f00d
:1065000064f800e100f08cf911f8430fdfe000f0cf
:1065100087f911f84b0fdae021462846fff703fd13
:106520007ee000f07df911f8480fd0e000f078f936
:1065300011f84a0fcbe021462846fff70bfd6fe02c
:10654000adf800005431002208e0c88920b1bdf840
:1065500000506d1cadf800501031521c90b29842a2
:10656000f3d370e021462846fff78afd58e001f199
:106570005405307d727d0027b17d8df80070104389
:10658000084315d0b9b2994212d2697b9df8002018
:10659000914238bf11467f1c1035beb29e428df825
:1065a0000010efd2a878e9782a7908431043ecd19b
:1065b00000f036f99df8000089e021462846fff7f3
:1065c00090fd2de000f02cf911f8450f7fe00883d5
:1065d00014e0b7f80350b3784ff03c0c95fbfcfc8b
:1065e000f578a3eb0c03ab4206da3379bd78ab4206
:1065f00002d20b8b5b1c0b837f1d401c83b293422a
:10660000e7d3088b08b901220a8300f005f911f8d5
:10661000180f107048781de021462846fff77afdd4
:106620000646c8e00021adf8001009e0b7f8030005
:1066300020b1bdf800305b1cadf800307f1d491c57
:1066400088b29042f2d300f0e7f89df80000107095
:106650009df8010050706ce00a200a222070dff8db
:10666000481a63e00820621c207051f8250f106062
:10667000486850605de000f0d3f811f83e0f26e066
:1066800000f0cef811f83f0f21e003200322207024
:106690002d314be000f0c4f811f8400f17e000f086
:1066a000bff811f8410f12e00320032220703031af
:1066b0003ce000f0b5f811f84f0f08e000f0b0f83a
:1066c00011f8500f03e000f0abf811f8510f107003
:1066d0002fe000f09df851f8100f08e000f098f856
:1066e00051f80c0f03e000f093f851f8080f106018
:1066f0001fe001202070317861701ae001222270c1
:10670000307b00b10120607013e00ff6c810062145
:10671000d0e90023cde90023217006226946601ce0
:10672000fff76cfb05e0542054222070601cfff73b
:1067300065fb002652e0e8264ff48671681a40d0c7
:10674000001f3ed0001f3cd0001f3ad0001f38d0a1
:10675000001f36d0001f34d0001f32d0001f30d0b1
:10676000001f2ed0001f2cd0001f2ad0001f28d0c1
:10677000001f26d0001f24d0001f22d0001f20d0d1
:106780000c381ed00938032881bf401f0128001f84
:10679000022813d9c01e022804d9c01f0ed0c01e63
:1067a0000cd011e0022222702278611c284600f0f1
:1067b0007fff00b9002630000ed10fe001202070cd
:1067c000f2e704212170efe72846fff757fb002886
:1067d0002070e9d100e0f426002020703046febd94
:1067e0000000000008540020301e010068960020c0
:1067f0005c740020bc980020435400202000000856
:106800002e000008270000080200000829000008e8
:106810000420621c207070470220621c20707047a8
:106820000120621c207070472de9f843dff87c38a6
:10683000a6b098428846174600f09682b0f5907f41
:1068400070d0dff86c18884200f07882dff8642896
:10685000904205d0b0f5857f3cd0dff85c188842c7
:1068600000f0c882dff85428904252d05fea080155
:1068700018bff92440f0bf824738dff8446806f1ba
:106880003305dff8249800f09880801e00f0a8807f
:10689000c01e00f0ac80801e00f0b880401e00f0ea
:1068a000c280401e00f0cc80401e00f0d180801ecf
:1068b00000f0d880801f00f0ad801f3800f0de802f
:1068c000883800f0e280801f00f0eb80c01e00f0ee
:1068d000f180401e00f05281801e00f0f480401ec6
:1068e00000f05081401e00f0fc80401e00f08680c9
:1068f000401e00f0fd80401e00f01081401e00f0a0
:106900001a81401e00f02581401e00f03081401e9b
:10691000012840f26d82093800f05581401e00f0d8
:106920004881401e00f03581401e00f05781c01e96
:1069300000f05b81dff83415401a00f02e81801ed4
:10694000e7d0001f00f07e81401e00f08481401ed1
:1069500000f08a81401e00f09081401e00f092817c
:10696000401e00f09881c01e00f09e81401e00f085
:10697000a681c01e00f0b781801e00f0bc81c01f40
:1069800000f0c181401e00f0cf81801e00f0c58163
:10699000401e00f0e981801ebbd0801f00f04b81bb
:1069a000401e0128b5d9801e00f09481c01e00f061
:1069b000c581d23800f0cc811ce2781c002401781b
:1069c0008df800103978012940f0cc819df8000045
:1069d0000e2869dc0146a87a81422dd369710ae24a
:1069e00000f00dfa60d1791c06f1390278e100f06f
:1069f00006fa59d1791c06f13a0271e1387800247f
:106a0000022851d1791c06f11a0232e03846fff70c
:106a100074fa35e100f0fbf946d19df80000332807
:106a20003bda6872e7e100f0f2f93dd19df8000031
:106a30000e2839dc69798142c0f09481a872dae1cc
:106a40003878002402282fd1791c06f1140210e0b6
:106a500000f0ddf928d100f0d6f925dc00b10120e5
:106a6000a876c8e13878002402281dd1791c06f1e7
:106a700016020878107048785070bce100f0bff939
:106a800012d1791c06f147022ae100f0c0f90bd1be
:106a90009df80000002862d0082880f263812870e9
:106aa000a9e139780024042940f05c81781c016850
:106ab0003160a0e1397800240429f5d1781c321d19
:106ac0000168116097e100f0a2f9edd16a79a87a26
:106ad0009df80010121ab1eb420fc0f243816970a9
:106ae00089e100f08cf9dfd1791c06f14402f7e06e
:106af000387800240928d7d10922791c06f11c0016
:106b0000fff77cf9e97d99f8020006f11c0200f01c
:106b1000c5fe06f11c0000f03ffd6ce100f06ff9ce
:106b2000c2d1791c087800288df8000018bfff2812
:106b300015d0a8755fe100f062f9b5d1791c08782d
:106b40008df80000c01e12285ad29df80010a970be
:106b500051e100f05cf9a7d19df80000002800f099
:106b6000018169788142c0f0fd80e87043e100f066
:106b700046f999d1791c06f13702b1e03846fff7a2
:106b800019fa7de000f03bf98ed1791c06f148023c
:106b9000a6e03846fff7ddfa72e0387800240828ce
:106ba00065d1791c06f125020868106048685060bc
:106bb00021e100f02cf95ad19df800001a2880f24a
:106bc000d180287417e100f022f950d100f01bf9b0
:106bd0004ddc0cbf0120002028760ce100f00ff9fd
:106be00045d1791c06f145027ae0781c02788df8cf
:106bf00000203a78012a3ad19df800100839052979
:106c000080f0b0809df800108df8042001aa18468d
:106c10008df8051040f27711fff706fe040009d148
:106c20009df8000006f11c02e875014699f8020083
:106c300000f034fedfe000f0e2f818d1791c06f134
:106c400046024de000f0e3f811d19df80000022863
:106c50000ddce872cfe000f0daf808d19df8000012
:106c6000042804dc2873c6e038780024032879d18e
:106c70000322791c06f12d0071e03846fff7c3fab4
:106c80000446b8e000f0c3f86cd19df80000042879
:106c900068dca873afe038780024032862d10322af
:106ca000791c06f130005ae000f0b1f85ad100f03a
:106cb000aaf857dc0cbf0120002028779be000f0e9
:106cc000a6f84fd100f09ff84cdc0cbf012000204b
:106cd000687790e000f093f844d1791c06f15102f6
:106ce0000878107087e03878002404283ad1791c9d
:106cf00006f110020ee038780024042832d1791c05
:106d000006f10c0206e03878002404282ad1791c08
:106d100006f10802086810606de000f078f821d1f3
:106d20009df80000e87366e000f071f81ad100f0f9
:106d30006af817dc00b10120e8765ce04046e82400
:106d400000f06df8002856d000210024c18152e0e7
:106d500038780024542805d15422791c3046fff796
:106d60004df848e0e82446e0e8244ff48671b8eb9b
:106d700001003dd0001f3bd0001f39d0001f37d08d
:106d8000001f35d0001f33d0001f31d0001f2fd07f
:106d9000001f2dd0001f2bd0001f29d0001f27d08f
:106da000001f25d0001f23d0001f21d0001f1fd09f
:106db000001f1dd00c380bd00938032881bf401f9d
:106dc0000128001f052803d90a3801d0c01e01d1af
:106dd0003a7804e04046fff751f860b10246791c6a
:106de000404600f0a0fc08b9002404e0022802d1cb
:106df000fb2400e0f424204627b0bde8f083387877
:106e00000024012870479df8000001287047781c75
:106e1000002402788df800203a78012a7047014654
:106e2000a748f0b500f1540500f1560318785c78d6
:106e30009b78002200262043184314d0a14cb7b2ff
:106e400063889f420fd20ae0761c1035b4b29c4290
:106e5000f4d2a878ef782c793843204303d02f88d8
:106e60008f42f1d12a461046f0bd0000ddfeff073b
:106e70002de9ff410146dff84882b8f8620008f1c9
:106e80005402002400270023a0b38e4ea0b27688bf
:106e9000b0420dd2002b01bf108888420123274643
:106ea000641c1032a5b2b542efd2d0890028f1d1ce
:106eb00003b3bfb2684608eb07151022761ea4b2d2
:106ec00005f15401fef79affb74208da661ef71b78
:106ed0003a0105f1640105f1540000f087fc08eb6c
:106ee00004146946102204f14400fef787ff0020d5
:106ef000a4f85200bde8ff812de9f84384b00746ad
:106f000089461546fff78bff0400dff8b48108f1ce
:106f1000480616d0684621461022fef76fff08f19a
:106f20005400241a2411220108f1540108f16400cc
:106f300000f05cfc08f1540069461022fef75eff89
:106f400010e0604808f15401428808f16400521ec4
:106f5000120100f04bfc08f154005b491022fef7cf
:106f60004dffb7812878317e032260f3000108f1dc
:106f700056003176291dfef741ff6878717c0622a4
:106f800060f302017174a87860f3c6017174e87847
:106f900001f07f0141eac01108f15a00717405f156
:106fa0000901fef72bff287a317e3c2205b070766e
:106fb000307869f34301317610fb02f27283bde849
:106fc000f08370b502460020404b002401e0641cb1
:106fd0005b1d3c4da1b22e88b14206d2b3f803101e
:106fe00019b11d889542f2d1184670bdfeb506460e
:106ff0000f46fff7e6ff0400344d14d068462146e3
:107000000522641bfef7fafe0520294694fbf0f2e8
:1070100002eb8202681d00f0e9fb28466946052262
:10702000fef7ecfe0de0274829460288681d521e37
:1070300002eb820200f0dafb00202e80a870a5f897
:1070400003002e801e48af7090f844103c2211fbc4
:1070500002f2a5f80320f7bd30b500221b4b194cf6
:1070600091b22588a9420bd2b3f8031041b18842ee
:107070002cbf0021091aa3f80310521c5b1deee778
:1070800030bd30b50022124b0e4c658891b2a9423a
:1070900009d2d98939b188422cbf0021091ad98176
:1070a000521c1033f1e730bd789800202000000812
:1070b0002e00000827000008020000082900000830
:1070c00008540020bc980020589600205c740020d2
:1070d0005c540020020008170b020000f8b50446bb
:1070e000dff8ec0604f12706016970780f1d01f145
:1070f0000a05002818bf01281bd1e07ba27b00f005
:107100000f0000eb02100222c870707938703179dc
:1071100023207970f3786946bb7000f053fdbdf809
:107120000020120afa70bdf80000387131787971c8
:1071300008e00022ff23ca703a704a718a71ca714e
:107140000a724b727078287020686168401a010ecc
:10715000020c030a6970aa70eb7028712068010e96
:107160002872020c6971030aaa71eb712089000a66
:1071700068722189a9722069000ae872206928735f
:107180006089000a6873618905f10f00a97362893b
:10719000d4f8751043e0f8b50446dff83866dff838
:1071a000300606f14a070169b8790222cd1c7979c7
:1071b00000f00f0000eb011069462870b878687085
:1071c0007b78ab703878e870222000f0fbfcbdf8cb
:1071d0000020120a2a71bdf800006871ff20a87112
:1071e000797ae971f16ae9720a0eec730b0c2a7272
:1071f0006b720f0a210e220c2973230a0021af7231
:107200006a73ab7329746874a974e874308e000ac9
:107210002875318e05f116006975328e716dfef795
:10722000edfdf1bd3eb50446207a0a2811d8dfe80d
:1072300000f00a06080a0c0e080a080808000723ce
:1072400008e0052306e0002304e0022302e0012316
:1072500000e00423dff87855dff87c15287850b17a
:10726000072b02d12889401c2881896841b100f090
:1072700015f8884704e0096811b100f00ff8884755
:10728000e87850b1217a012907d16068fff783ffc0
:10729000dff84005e968008e884737bd8df800307b
:1072a00060680190684670472de9ff47054605f183
:1072b0002707dff828a578780af14904dff8106578
:1072c000a0717a7896f80280dff80c95022a18bf30
:1072d000032a1cd1d9f80c10002963d08df80320a3
:1072e00028680190d5f875000246c078127842ea05
:1072f0000022adf80020d5f875004078c009b8f13b
:10730000000f8df802004dd1684688474ae0297b7e
:1073100021703a7805f12d018af80020e87b482297
:10732000a0700af10100fef769fd002029180aeba0
:107330000002401c91f82a10032882f84c10f5db5b
:10734000a87b032803d8dfe800f00407090c00211c
:1073500005e00122627006e0022003e00321617073
:1073600001e0042060703978717028894ff47a71d7
:10737000b080686800f2e730b0fbf1f1f180d9f835
:10738000041079b1d5f87520b8f1000f0192286882
:1073900003907a788df808206b89adf8003004bf2f
:1073a00068468847f07828b12846fff797fe688935
:1073b000f1688847bde8ff8710b5dff8240404684a
:1073c00001f024f8604010bd1cb50446dff800044d
:1073d000002141708180c18001818170c170502184
:1073e000dff8f803fef736fddff8ec032146202234
:1073f000fef704fd01f07ff9dff8e813dff8e8237a
:1074000000916846019201f045fa13bd01f020badf
:1074100038b5dff8bc33012184b01970dff8b4232c
:10742000057902f14d04042165701186c2f854d02b
:10743000c578a5714179002919bf0121856803210b
:1074400000252170d56201888df800108478997824
:10745000e4018df801400088000a8df8030021b98d
:1074600002f12c0001f01cfa09e00122dff87003a0
:107470008df80c200068029001a8fff7d3fe05b03c
:1074800030bddff85403416939b1dff844339a78ed
:10749000002a04bfdff84403084770470146dff8bd
:1074a00034032922fef7aabcfeb5dff824330021fd
:1074b0001970dff8204304f12701a678277804f13a
:1074c0004d054a78ee706f70aa71068804f12c029f
:1074d0009680677809784668666569717f1e032f14
:1074e00003d8dfe807f00406080b042607e00021b4
:1074f00002e0012603e00221a97001e00326ae703c
:10750000017a21b100262e70c068106003e00221cc
:1075100029700025156000202118401cce78022813
:1075200081f84a60f8dd997819b9104601f0b8f988
:10753000f7bd0123aa488df808300068019068461d
:10754000fff770fef7bd00001cb504460522694632
:10755000052000f037fb9df8011061709df80000d8
:10756000032803d8dfe800f00406090c002205e038
:10757000012106e00220207004e00322227001e0d5
:107580000421217000200deb00022318401c91788b
:1075900003289970f7d313bd10b592b00021ca101b
:1075a00001f00704835ce34003f001035a1e92419b
:1075b000d20f0df80120491c4829f0db482269460a
:1075c000042000f09dfc12b010bd012070474ff464
:1075d0008672811a34d0091f34d0091f34d0091f94
:1075e00034d0091f34d0091f34d0091f34d0091feb
:1075f00034d0091f34d0091f34d0091f34d0091fdb
:1076000034d0091f34d0091f34d0091f34d0091fca
:1076100034d0091f34d00c3934d0093934d0491e44
:1076200034d0491e34d0c91e34d0491e34d0091f6d
:1076300034d0093934d0891e34d0491e34d035e0d5
:1076400003207047062070470720704708207047c6
:10765000092070470a2070470b2070470c207047a4
:107660000d2070470e2070470f2070471020704784
:107670001120704712207047132070471420704764
:1076800015207047172070471e2070471f20704735
:107690001920704716207047182070471b2070472c
:1076a0003e207047442070474f207047c0b270475b
:1076b000feb503460020b3f5b67f0c461546444997
:1076c00002d149782170febd40f26d16b34208bf69
:1076d0008a880ad040f26f17bb4202d1c988218044
:1076e000febdb3f5b77f02d10a892280febdb3f596
:1076f000b57f02d18b782370febd1846b0f5b27ffe
:107700000ad10a2269461a2000f05cfabdf800206e
:10771000803212122270febdfff759ff2a46214621
:1077200000f050fafebdfeb50024b0f5b67f0d4660
:107730001646274902d12878487036e040f26d138a
:10774000984202d12a888a802fe040f26f17b8420f
:1077500002d12888c88028e0b0f5b77f02d12a88f6
:107760000a8122e0b0f5b57f07d12b7801224820ad
:107770008b70294600f0c4fb17e0b0f5b27f0dd145
:107780000a216846fef766fb28780a22694600024d
:10779000adf800001a2000f0b3fb05e0fff717ff7b
:1077a0003246294600f0acfb04462046febd08499f
:1077b000c87030b1086900210222122301704270a2
:1077c000837070470249c86070470149086170477b
:1077d0002c980020b0950020589700200896002093
:1077e000ec00004025310000a931000062b1814267
:1077f0003abf53189842fef703bb801813f8011dd7
:10780000521e00f8011df9d170470000b049887080
:107810008a7840f2ff10032a00d9704710b5dfe8dc
:1078200002f002111f2e24200623c87004200b71c1
:1078300001244b713f23887108720c200b80cc719e
:10784000487210bd0422042010230a71cb703f221d
:1078500001244871887108230a80cc7108721be0ea
:1078600048220880ca7001228a710220182403234a
:107870000c220c714b71c87108724a7210bd36240b
:107880000322cc7012234a7101240b7102228c71e5
:107890000c230880cc710a724b7210bd4900c91cc0
:1078a0002de9f54f0025002600278a4883b00024e3
:1078b0009df80ce001908df80040a046a146a2463c
:1078c000a3460078bef1030f40f2b7224ff42073b5
:1078d00069d8dfe80ef0021c354e8df80010154611
:1078e00090a100f0e9f80ff2002e00f110031c3017
:1078f0009ee8061083e806107ea1082791e80c1088
:1079000080e80c10212600f0d1f805204be08df81e
:10791000001015460ff2102100f0cef800f1100310
:1079200077a11c3091e8045083e8045091e80c10d2
:107930000827212680e80c1000f0b8f8022032e079
:107940008df800100ff2e41100f0bbf86fa11c30ad
:1079500091e8045083e8045091e80c100a2700f0e5
:107960009ff8b846b9464ff0080a40f2ff1b0920bd
:1079700019e08df8001000bf0ff2b41100f0a1f86b
:1079800065a11c3091e8045083e8045091e80c1084
:107990004ff00a0800f084f86c27c1464ff0080a3f
:1079a0004ff0fc0b07200199032208704a484b490d
:1079b000fef724fa049808b949490491019a494804
:1079c00090f82cc0002100231078401e02909df8f2
:1079d0000c0063452ada049ad25c40b1032804bf44
:1079e000ddf808e0734508d102f03f0205e0ddf85c
:1079f00008e0734508bf02f00f024fea620e0ef076
:107a0000550e02f0550272445ffa82fe4fea9e0e56
:107a10000ef0330e02f0330272445ffa82fe02f07f
:107a20000f025b1c02eb1e125118d2e7cab202b958
:107a300024219df8002017fb05f7c9b20c2318fb81
:107a400005f813fb0616544319fb05f96a0047367f
:107a500096fbf1f1019ec9b211fb05f11afb05fa83
:107a60007260019b01eb54041bfb05259f60019e86
:107a7000c6f80c80019b4d447d1905eb4405c3f805
:107a80001090019ec6f814a001998c61019a4c4493
:107a90003c19d56101990c6205b0bde8f04fb5e61f
:107aa000d52480e80c10e82542267047b846b94630
:107ab000ba464ff0fc0b70470a480a681c468262bf
:107ac000704708480a68826200f11003704700009e
:107ad00078980020849600205a96002080960020f6
:107ae0006896002058960020ffffffff0f0000005f
:107af00000000000ffff00f80f0000000000000081
:107b0000ffff00000000000000000000ffffffff7b
:107b1000ffffffffff000000ffffffffffff3f0031
:107b2000000000003f0000000f000000ffffff000a
:107b3000ffff030062f30f2262f31f4200b500bf94
:107b4000130096469446103928bfa0e80c50fad886
:107b50005fea417c28bf0cc048bf40f8042bc9072e
:107b600028bf20f8022b48bf00f8012b00bd000001
:107b70004018491c1cbfb1f1010100f8012df9d1d9
:107b80007047000001f0f6b880b502f0a4f802f0ea
:107b9000e5f80028fbd101bd80b5fff7f5ff02f045
:107ba0000bff02f0adff0028fbd103f0a7ff002878
:107bb000f7d101bd80b505f09dfcbde8014002f0a4
:107bc0007eb800002de9f843002507464f2f0c46ec
:107bd000dff814089046416800f28a81dfe817f068
:107be0005000530058005b006300660043016a00c8
:107bf0006c006e0070007200740076007c007e00e5
:107c000080008200840086008a008c008e00910033
:107c1000940097009a009f00a2008800a500a80089
:107c2000ab00ae00b300b6006c01b900b900c500ee
:107c3000c500c500ec00ec00ec00fe00fe00fe00fc
:107c40001001240127012a012d01300133013601e1
:107c500039013c013f01450148014b014e015101f1
:107c60005a015d01600168016c011a016e01700129
:107c7000750178007a0077017a017d018001840125
:107c80000ff27071efe043f20167adf8007005e0ac
:107c90000ff26c71e7e0dff8540700906946204668
:107ca000fef7acf829e105f095fddae0204605f095
:107cb000adfc22e1091dd6e00831d4e00c31d2e060
:107cc0001031d0e01431cee01831cce01c31cae0e4
:107cd0002031c8e02431c6e02831c4e02c31c2e0b4
:107ce0003031c0e03431bee03831bce03c31bae084
:107cf0004831b8e04031b6e04431b4e003f0a5fecd
:107d0000f4e003f0d5feede005f071fceae003f0ed
:107d1000d5feebe003f0defe01460a22a3e003f00d
:107d2000cafee3e002f007f8e0e005f0c8fedde09f
:107d300005f0d2fedae005f076ffd3e005f04afd6b
:107d400090f8d900d2e001f085feb3e005f077fcb1
:107d5000b0e000f0d3f8804556d105f0a2ff252f02
:107d6000424618bf203001467de000f0c7f880454c
:107d70004ad105f096ff8146272f08bf09f140013f
:107d800005d0282f0cbf09f1800109f1c0014fea8d
:107d9000580632462046fef731f8272f04eb5800ec
:107da00008bf09f1600105d0282f0cbf09f1a0011f
:107db00009f1e001324678e000f0a0f8804523d1d7
:107dc00005f06fff2a2f08bf00f5a2714ad02b2fb4
:107dd0000cbf00f5ea7100f5197143e000f08ef870
:107de000804511d105f05dff2d2f08bf00f53d71d5
:107df00038d02e2f0cbf00f2fa2100f53f7131e090
:107e0000302000f099fa804576d105f04aff00f560
:107e1000807127e0452000f08ffa80456cd105f095
:107e200040ff00f202311de000f00efd5ee005f0c3
:107e30003aff5be005f053fe54e003f014fe39e036
:107e400003f020fe36e005f044fe33e005f0f6fed8
:107e50004ce005f000ff49e005f003ff2ae003f0e5
:107e600055fe0146424620461fe002f0b2fd21e0e9
:107e700002f0b2fd1ee002f0c1fd1be006f0faf8d0
:107e800034e0dff86c05016811f4807218bf01223c
:107e9000227032e005f0dafb24e005f0dafb25e0a1
:107ea00001f078ff014620460622fdf7a7ff24e0f7
:107eb00001f076ff208020e025701ee0002100e028
:107ec0000121204605f0d1fb17e000780ee005f017
:107ed000a7fe07e005f0c0fb08e005f0c0fb01e0ed
:107ee00005f0c0fb206008e0fff74cfe207004e0c6
:107ef00041462046fdf78eff012506e238461be28b
:107f00002de9f843002504464f2c9146dff8d8743c
:107f10000e467868c84600f2f781dfe814f0f301f6
:107f2000f301f301f3015000f301f6005e0060007d
:107f300062006400660068006a00700072007400ed
:107f4000760078007a007e00800086008a008e002d
:107f500092009600f3019a007c00a100ae00f301ac
:107f6000f301f301f301bd00c300c300d000d00052
:107f7000d000f900f900f9003c013c013c01670127
:107f80009b019f01f301a301a701f301ab01af0125
:107f9000b301f301b701f301bb01bf01c301f30159
:107fa000f301d001f30182008401f301f301d40154
:107fb0006c006e00f301f301f301f301e001042012
:107fc00000f0baf9814570d1fff7e6fd304605f0c3
:107fd000dbfb032001f0cafe91e1001d95e00830b3
:107fe00093e00c3091e010308fe014308de01830c9
:107ff0008be01c3089e0203087e0243085e0283099
:1080000083e02c3081e030307fe034307de0383068
:108010007be03c3079e0483077e0403075e0443038
:1080200073e04c21fdf716ff6fe1307803f010fd8f
:108030006be1306803f034fd67e1306805f0ccfa9d
:1080400063e1307803f03dfd5fe1304603f044fd2d
:108050005be1307801f06cfe307805f0bafa54e15b
:108060003478032c0bda05f02afd8442f7d0fff7b1
:108070008bfd204601f062fee9e03478032c80f2ab
:10808000438105f029fd84420bd0fff77dfd0121de
:10809000204605f084fcdae03078002801d003f0b7
:1080a000d0fc32e100f03df9814540f02d8105f032
:1080b000f8fd252c4246314618bf203025e000f05f
:1080c00030f98145f1d105f0ecfd8046272c08bf41
:1080d00008f1400005d0282c0cbf08f1800008f101
:1080e000c0004fea59073a463146fdf787fe272c74
:1080f00006eb590108bf08f1600005d0282c0cbf21
:1081000008f1a00008f1e0003a46fdf777fefce038
:1081100000f007f98145c8d105f0c3fd2a2c00f510
:10812000ea7708bf00f5a27904d02b2c0cbfb94622
:1081300000f5197900f0f0f80028e8d0fff72cfde1
:108140002a2c08d100f0e4f8fdf758fe002005f0d5
:10815000edfb00201ae02b2c00f0daf805d1fdf73a
:108160004dfe012005f0e2fb0fe0fdf747fe424621
:1081700031463846fdf742fe022005f0d7fb0120cc
:1081800005f0d4fb022001f0f1fd012001f0eefd2d
:1081900005f098fcb3e000f0c4f8814547d105f044
:1081a00080fd2d2c00f2fa2708bf00f53d7904d0a0
:1081b0002e2c0cbfb94600f53f7900f0adf8002831
:1081c00047d0fff7e1fc2d2c02d100f0a1f803e02d
:1081d0002e2c00f09df802d1fdf710fe35e0fdf7e2
:1081e0000dfe30783870707878702ee0302000f016
:1081f000a3f881451bd105f054fd00f5807442467b
:1082000031462046fdf72afe002822d0fff7bcfcad
:10821000424631462046fdf7f1fd21464ff0402011
:1082200005f0b3ff11e0452000f086f881456bd1e1
:1082300005f037fd0446fff7a7fc4246314604f23d
:108240000230fdf7dbfd06f0f6f805f03bfc01f02f
:1082500036fd5ae0307800f0f0fa56e0307805f05c
:1082600026fd52e0308803f0f6fb4ee0308803f044
:1082700001fc4ae0307805f0d9fc46e0307805f0a2
:10828000e0fc42e0705f05f0e9fc3ee0308802f07f
:10829000a6fb3ae0308802f0b4fb36e0307805f017
:1082a000e8fe32e03078524920b90a6822f4807240
:1082b0000a602ae0086840f48070086025e03046d3
:1082c00001f063fd21e034783878a0421dd014b16c
:1082d00001f001fd01e001f0f2fc3c7015e03478a2
:1082e000601f082810d2fff74dfc84420dd0fff725
:1082f00053fc204600f02bfd204605f058f9fff70f
:1083000059fc02e0022500e001252846bde8f28381
:108310004246314648467047424631464846fdf798
:108320009dbd204608e030490122486000200870c9
:108330004a707047704700004f2843d8dfe800f0cc
:10834000282e2a303a2c3030303030303030303037
:10835000303030303030403030403c4040304040b1
:1083600030402e2e4032323434343636363e2e3eb5
:10837000384040302e2e2e40402e3a2e2e2e404099
:1083800030403e2e40403636403030304030304075
:10839000082070470b207047052070470220704767
:1083a000042070472020704740207047902070477d
:1083b00044207047482070470a20704706207047c5
:1083c000012070470020704738b50446064d687894
:1083d000a04207d0200002d101f07dfc01e001f0b5
:1083e0006efc6c7031bd0000a498002006050236ba
:1083f00000180e404154504c33363042000000000b
:1084000033362e30322e30352e303600f0b5274c34
:10841000274a2078274b6ff0004150bb0820656841
:1084200003fb05250e46b5fbf6f601fb1655401e6f
:108430006560f4d1204d2e461020676803fb0727a6
:108440008c46b7fbfcfc01fb1c77676046f8047b9d
:108450008e4603fb0727b7fbfefe01fb1e77676016
:10846000401e46f8047be8d1e86fc5f8800001257e
:108470002570606803fb00220b46b2fbf3f301fb9f
:1084800013210d4a616092f8803003f01f0352f807
:108490002300c2f8800042f8231020f04040f0bdd5
:1084a000024900220a704860704700000054002012
:1084b0005ff36e3c0d661900c4940020010008d4df
:1084c000012200f01f018a40dff8fc33400943f825
:1084d00020207047010008d4012200f01f018a40cb
:1084e000dff8e833400943f82020704749010200d3
:1084f00003d4dff8dc0381547047dff8d83302f08f
:108500000f021a4402f8041c704700eb81108267c6
:10851000704702f051ba38b50446607a08b104f0e9
:10852000e9ff207adff8b053012809d16968dff844
:10853000ac23a868491c696011884118a96036e01d
:10854000e868401ce860217a022915d0032917d079
:10855000042919d0052913d0062919d007291bd0c1
:1085600008291cbf09290a2912d00b2918d00c2967
:108570001ad0ff2910d01ae0a869401ca86116e0a3
:108580006969491c696112e02869401c28610ee094
:10859000e969491ce9610ae0286a401c286206e092
:1085a000a96a491ca96202e0686a401c6862296dd8
:1085b00009b120468847286e38b10a22214605f1c4
:1085c0006800fdf71bfc0120287031bd70b5044622
:1085d000c14ef06a726d0d46401cf0620ab1204631
:1085e0009047706e38b12a46214606f1f000fdf73b
:1085f00005fc0121b17070bd38b5044604f12801b5
:108600000878b54d002818bf01280fd16289286b62
:108610006b6b82182a63607b18186863487800289f
:1086200018bffe2802d1e86c401ce86401f05ffb33
:10863000a96d09b120468847686e58b17922214654
:1086400005f17400fdf7dafb05f1f0000121c5f832
:10865000e900697031bd0000401e05289e4914d80c
:10866000dfe800f0030707070b0f086c401c0864e5
:1086700070478a6c521c8a647047c86b401cc86380
:1086800070474a6c521c4a647047886b401c886370
:1086900070479149c96d002918bf0847704780b5d8
:1086a000112005f0c3ff8e4a0a218e48fff72dffe7
:1086b0008d488e4908608e4841f2210200234260b5
:1086c0004ff4e071836001601120bde8024005f0c5
:1086d000c3bf10b58748012101604ff062430361b9
:1086e000002444627f4c844a06212046fff70dff98
:1086f0004023e36010bd38b5774c0121e1700c20b8
:1087000005f094ff0d20002505f090ff0e2005f0e8
:108710008dfffff7c4ff002005f0d4ffe2780121b0
:108720004ff0804006f02cf8fff7d3ff4ff0804069
:1087300006f0c2f806f074f905f016f801f092f9a7
:10874000082000f004fb6d4801f002fb6c4800f0cb
:10875000f2fb04f0ddfe082004f029ff694804f074
:1087600049ff694804f049ff684804f049ff684838
:1087700004f049ff674802f0d5f904f0bbfe05f0ac
:1087800027fa1f206449086004f1600004f15001d9
:108790000022c0e900220020002381e82d00227081
:1087a000201d6370a570fff7befd0e20fff792fe3f
:1087b00002210e20fff79afe0e20fff77ffe092010
:1087c000fff788fe02210920fff790fe0920fff73e
:1087d00075fe0620fff77efe02210620fff786fecb
:1087e0000620fff76bfe1120fff774fe0321112016
:1087f000fff77cfe1120fff761fe03210d20fff73c
:1088000075fe0d20fff75afe0c20fff763fe0421d2
:108810000c20fff76bfe0c20fff750fe0f20fff738
:1088200059fe04210f20fff761fe0f20fff746fedf
:108830000e20bde8324005f00fbf01462648c1704a
:108840004ff0804006f014b82348c078704700000d
:1088500010b5214c207828b1226e0021217004f13e
:1088600068009047617800291cbfa078002806d0d6
:10887000002104f174006170a170616e8847fff7f8
:1088800059fde078002804d024490868c00400d4c9
:1088900030bf10bd224902680a6042684a607047d2
:1088a00010b5044601f03ef9a188a06a01f0e5f98f
:1088b00094f827000949002816bf0128a088002045
:1088c000088010bd0000000000e100e080e200e050
:1088d00000e400e018ed00e0dc8900205e98002054
:1088e0001160010a0000014000c000e2e402014002
:1088f00000c00140d00101400110040617440000ef
:1089000013440000cd440000f94400005945000024
:10891000055c000093450000b400004034000040b6
:108920003c8a00202de9f04381b005460f461646eb
:108930009946089c0e2005f0a4fe80460e2005f006
:1089400075fe4ff48050b040002c19bfa96b21ea8e
:108950000000aa6b1043a8633146284605f04efc80
:10896000b9f1000f03d0874238bf012424d33f1a46
:1089700072b6bff35f8fd5f89000b9f1000f18bf42
:10898000c719c11b642926bf381a052801240ed334
:10899000dff8c815884228bf002408d205eb8602fc
:1089a0000123b34002241764a96b1943a963bff3e1
:1089b0005f8f62b6012c05d1a86b112101fa06f672
:1089c0000643ae63b8f1000f04bf0e2005f044fe6d
:1089d000204601b0bde8f08300eb811002657047ce
:1089e00000eb8110920843ea82028266704700eb36
:1089f0008110806e80088000704700eb8110c26695
:108a0000704700eb8110c2f30b02426770472de9fb
:108a1000f04105f083fb8046dff84455e87818b351
:108a2000dff84005416a49061ed506210027fff7f9
:108a3000deff0646286bb04204d2301a0c21b0fb90
:108a4000f1f707e0864206d2801b0c22b0fbf2f75a
:108a5000c7f10307ffb2002402e0286a641c8047c4
:108a6000e0b2b842f9db2e633ae170b5dff8f444c6
:108a7000606a4006fcd4dff8f05400232e68dff86b
:108a8000ec2406212046fff7abff0522062100f06b
:108a90007af84020e06170bdf8b54ff08044dff80f
:108aa000d0642069dff8cc5440f001002061706888
:108ab000400607d5002140232960226842f00402c5
:108ac00022603360dff89874dff8ac043863fff796
:108ad000ccffdff8a814062005f0aeff05f05fff1d
:108ae000b96a4118dff898040068e831401c7268e0
:108af0005206fcd56a6be36a43f00203e362e66a5e
:108b0000891a414326f00206e66200202960686067
:108b1000216841f002012160f1bdf8b5dff864047d
:108b20001321016000220260dff8384480202062b7
:108b3000606a0006fcd4dff85014dff824540a6899
:108b40002b780c20dff8446406f1480207214343e8
:108b5000f0180123476847f0807747602046fff709
:108b60003fff00f00ef86a7807212046fff749ff23
:108b700006f154000122b06420460721bde8f84008
:108b80002ae703220721204637e710b5dff8d04354
:108b90000120e07005f0c4fba1688847dff8f0030e
:108ba0008022026081680906fcd5dff8e8030268cc
:108bb00042f01002026010bd10b5044605f0c9fb7a
:108bc000dff89c030222c188c27061188162c0680c
:108bd000bde81040004738b5dff884530c46e8780c
:108be000062818bf05f01afc05f0d3fbfff795ff28
:108bf000696920468847204605f0e6fb08e038b55d
:108c0000dff85c530c46fff788ffa96920468847c8
:108c10000020e87031bd00002de9f04105f07efa3a
:108c200080460721dff83c03dff83463fff7dffeff
:108c3000f1780546b06adff854438a1e042a4fd8fb
:108c4000dfe802f0030d101f1f00a16c04f14803c0
:108c5000994245d0326990470320f07040e00421ea
:108c6000f1703de04ff080400068c10558bffff74c
:108c700013fff0698047052104f10c02f170f262e4
:108c80002ee0f26a0027aa4204d2aa1a0c20b2fbf4
:108c9000f0f707e0954207d2521b0c23b2fbf3f723
:108ca000c7f10307ffb212e0062910d132780c2178
:108cb0004a43a3589d420ad1b38840f6dc220127db
:108cc0005a43921d92fbf1f1081805f058fb00245d
:108cd00002e0f069641c8047e0b2b842f9dbf5625b
:108ce000b8f1000f03d04ff48040ab490860bde8f5
:108cf000f08138b59b4c012207212046fff76cfe1e
:108d0000a64da74b2b600123a64a07212046fff75b
:108d100067fefff736ffa44800216861a34aa961f6
:108d20008020ea61e06031bdf0b58d4ca2785ab97f
:108d300002460c235a43954b1d1d1f1dae5826f0ad
:108d40008076be502070a1800620e070f0bd0a2120
:108d5000421e0002824b484310b50c245a7000f6a4
:108d60000670d2b290fbf4f4dc8007217d48bde8a8
:108d7000104046e67a484078401cc0b270472de962
:108d8000f843774c0021e170002005f087fe606217
:108d900000224ff40b7986490c267c4f06fb02f328
:108da00009fb02fe521c022a3b4403f10c051d6024
:108db00086445960c3f808e0f0db022207f1080599
:108dc00006fb02f3ff5007e0fad006fb02f307f1bf
:108dd0000c0c9c4447f803c006fb02f307f1040e99
:108de0004ef8031009fb02fe521c022a864445f885
:108df00003e0e9dd07f154006e4db8640120fd6425
:108e000005f04cfe386507f1600078650220bd650d
:108e100005f044fef86568483f667866616a01f5ca
:108e20008b62ba66fff765ff6449072005f004fe10
:108e30000022634806fb02f107f1240e09fb02f849
:108e4000521c7b1803f130054ef80150022a98623b
:108e5000616a01f284618844c3f82c80eadb022253
:108e600007f1240506fb02fc07f1240307f12404a3
:108e700044f80c3007f12c0c07e0f3d006fb02f3aa
:108e800007f1300e9e4445f803e006fb02f307f1bc
:108e90002804e05009fb02f4521c022a0c444cf84e
:108ea0000340eadd4ff0402005f02ef94ff040205e
:108eb00005f000fe04f0f5fe00f580714ff0402053
:108ec00005f063f93f4805f01bff3f4805f021ff1f
:108ed0003e4805f018ff3e4805f018ff3d483e4962
:108ee0000860bde8f14305f063bb38b50c4604f0fb
:108ef000010563080146009503f0010300224ff0cd
:108f00004020fff70ffd58b10120610703d51f492d
:108f100001f148028a64e40804f0010410498c70ed
:108f200032bd0f49c87808b9ff207047002070474c
:108f30000b49886070470a49c86070470849086152
:108f4000704707494861704705498861704704497f
:108f5000c861704702490862704700000146c32398
:108f60002497002000000140dc010140b86f01207f
:108f700020000140b8000040c46f01200f490000ec
:108f800008400040c04000401c020140946f012096
:108f90001c0001400440004000e100e024020140c8
:108fa000004000e2dc6f01201170020700feff00ac
:108fb0008b0000038000000340000003194b0000f9
:108fc0008b0000058b4a0000b94a0000d74a000018
:108fd000ff4a00001101d001cc400040010008d43c
:108fe000012200f01f018a40dff8103d400943f8dc
:108ff0002020704701000cd4012200f01f018a409c
:10900000dff8283d400943f82020bff34f8fbff31e
:109010006f8f704700281cbf0e20fff7dfbf70471f
:1090200010b50e2005f02dfb04460e2005f0fefacb
:10903000204610bd002804bf0e2005f00dbb704770
:1090400038b505f06bf80446fff7eaffdff8081db6
:109050000d68fff7efff2046fff7dcff2d0e05f050
:10906000010032bd10b505f0d9f905f057f80446f6
:10907000fff7d6ff72b6bff35f8fdff8ec1c0a680c
:1090800042f480720a60bff35f8f62b6fff7d2ffcf
:1090900000f046be10b50446182005f0c7faa46ccf
:1090a000182005f0d9fa20b210bd2de9fe43dff8f3
:1090b000e85c04466f8d012cc7f1040606f0030638
:1090c0001fd1d5f8448031464046fcf7a3feea7c28
:1090d00008eb0601dff8280c521c17fb02f292b2d3
:1090e00005f024fee87c60b1688d696caf6c0246c7
:1090f00008448119b819fef779fb31463846fcf768
:1091000089fe0a2005f08efc6b7c6a8d082b0cbf53
:1091100000f5887100f580715b08b218012c92b2dd
:1091200005d1686c05f062fe2a8d686c04e0a86cbd
:1091300005f05cfe2a8da86c0021b318c154e96cbf
:10914000521c92b2304405f0b9feb5f8228095f871
:109150000c902f7c6e6d4946404641433046794322
:10916000c91dc910fcf756fee98caa7ce86c8df885
:109170000390adf8001031468df802206a46adf834
:1091800004808df8067005f033ff012c2bd1ec6bb9
:109190007f22ae7d04f1d80001784078c1f148010a
:1091a0004143686e91fbf2f2c2ebc212891a2a7c2b
:1091b000e977482142eac602d2b2fef7d9fc002084
:1091c000dff8d81b6a6e11f800c0275c135c4cea0c
:1091d000c7173b431354401c4828f3db012e02d130
:1091e000286e00f053fa0020696d85f82000688c25
:1091f000e966a884bde8f78330b5054685b0002050
:10920000dff8944b05f04afc0146607b226c039525
:1092100000924ff40b720346534300280fbf4ff4e4
:109220008b62401ec0b212fb00f288180b4400f2a1
:109230002a22019302924ff480731e210822adf876
:10924000103068468df812108df8132005f018ffc5
:10925000607b05b0401cc1b2032908bf00206073c9
:1092600030bdf0b50646dff8304b0d46206d85b0b9
:1092700020678421fcf7eefd226f02f1840323674f
:1092800016b105f068ff02e0e06b05f019ffa16d73
:10929000206f232206f092f8206f5c2100f5907079
:1092a000fcf7d8fd206d06f0b2f80646002005f068
:1092b000f5fb0146607b4ff40b7200960346534367
:1092c0000b44019315b101f256510ae000280fbf7b
:1092d0004ff48b62401ec0b212fb00f2881800f2fd
:1092e0002a210291dff8a00bfff7d4fe861d36b2cb
:1092f000300048bf40421f2804da002e54bf3546d4
:10930000754200e01f2500230021002edff87c2b92
:10931000adb2104603dd2a4606f09cf810e00fd5ea
:109320000120a840dff8681b884204d34ff0ff30cb
:109330004ff6ff7104e0104600212a4606f09af825
:1093400094f817c0dff84c5b35f81c20a2fb0067cf
:1093500002fb017704f0bafb360c002146ea07460f
:109360003f0ca0fb062300fb07336ff00040120afe
:1093700042ea03621b0a8b4201d8824200d30246b2
:1093800003924ff48072adf810201e2308228df84e
:1093900012308df81320684605f072fea08c05b0df
:1093a000411e607ba184401cc2b2032a08bf00207a
:1093b0006073f0bd38b5dff8e049227d921e052ac2
:1093c0005ed8dfe802f0031f252c2c5600f059f878
:1093d000a08c002854d1607d002818bf012809d036
:1093e000607be16b00280cbf0220401e91f8d91071
:1093f000c0b237e00120fff758fea07d01280bd155
:1094000003213ce0dff8900afff7f6fe042004e0b9
:109410004ff48030fff7f0fe0520207531bd0021ac
:109420000120fff71effa08c50bb217de07c0529a9
:1094300006d128b1062020750220bde8324034e66e
:10944000617b00290cbf02224a1e618c00b14900d9
:10945000e06ba57d90f8d930d0b2c918012d08bfb6
:10946000891c89b2fff760fc072003212075a184c5
:1094700031bda08c401ea08480b208b9082121759e
:1094800031bd00210020ece610b50446112005f0a6
:10949000e3f8dff80419dff86828888d104400f835
:1094a000024d240a447010bdd0b5dff8ec48e07bd3
:1094b000401ee073c0b268b90021dff8e009016026
:1094c0004ff0804002684023dff8d41942f00402d4
:1094d00002600b60002005f0e1faa37b4ff40b72f1
:1094e0004ff480715343c21802f29a6005f0d4ff22
:1094f000d4e90c6700213018e27b7941c4e90c0102
:109500008ab905f0d7ff00ee100af4ee000a20ee4b
:10951000200a05f0f3ff06f001f8dff88809bcee39
:10952000c00a80ed000aa07b401cc1b2032908bf1d
:109530000020a073d0bd78b5064687b00020dff8c4
:10954000585805f0abfa0446022005f0a7fa04f5d6
:109550008b62029003928022adf818204ff4803382
:1095600000210822059302a88df81a108df81b20ff
:1095700005f086fd02202875687d002818bf0128a7
:1095800013d104f050fb04000fd004f049fb361a4d
:1095900005d5a01b401eb0fbf4f000fb046661087b
:1095a00001eb0621b1fbf4f12970284605f0d2ff4a
:1095b000ea79696c42ea90028001ea710922287214
:1095c000284605f0b3fb686c0922017a01f0c0015e
:1095d0000172e96c05f072fce86b6c6d00f1d80665
:1095e0003178707841432046c91dc910fcf712fc40
:1095f0004ff458710622adf80010e86c8df8022087
:10960000337801228df8033071788df806206a4690
:10961000adf80410214605f0ebfce86d00f036f8db
:1096200000206a6da86685f82000e86bea660022d3
:1096300090f8d9106a73aa73a9840821e973c5e95f
:109640000c2204f049fa0146a86d04f08ff90121bb
:10965000fff718fffff715ffe87ea8b1687d002827
:1096600018bf012810d1dff8400805f0b5ffac8d18
:10967000112004f0dbff0123dff88416dff82c084b
:10968000a21e92b205f0b0ff08b070bd4822dff80c
:109690002018fcf7b3bb78b5dff8fc560446a86d7c
:1096a00085b0214604f062f92e6d8421304684365f
:1096b000fcf7b0fb062005f0b5f901464ff49072b7
:1096c0003046fcf79bfba96d2322304605f076fe61
:1096d0005c2106f59070fcf7bdfb286d05f097fe48
:1096e00005eb44210090dff8a00701f1740201921c
:1096f000fff7d0fc801d00b2010048bf49421f297e
:1097000004da002854bf0146414200e01f21dff87f
:10971000a42789b213460028c8bf22fa01f30adc45
:1097200009d50120884040f6c72398422cbf6ff02e
:10973000004302fa01f34ff480710022039368465c
:10974000adf81010adf8122005f09afc06b070bd0f
:1097500070b504460d460e20dff83c6604f07cff31
:10976000317d89b1fff76cfc70b93075fff7d9fb1b
:10977000411e8941c90fdff82c0741720572446010
:10978000b16bbde87040084770bd70b50446dff8a6
:109790000856687f18b100210c26697714e0287def
:1097a00008280dd1e97ddff8fc261068012604f0b9
:1097b0005bf804f078fae97d814205d22e7603e069
:1097c00009280cbf05260b2631462046bde870400f
:1097d000bee70321bce718b585b0dff8bc4504f04f
:1097e00062fae17d814207d3102905da207e18b99b
:1097f0000021012004f0d3f804f06ef904eb4021bd
:10980000236c019301f17402009204f05ff9e27d90
:10981000dff8801631f812304ff48072adf8102066
:109820005843000a03900023adf81230684605f053
:1098300027fc216c0220009105f030f90190dff83f
:1098400058160391684605f01bfc06b010bd0120b8
:10985000dff844154877fff705bc0428024602d11b
:109860000120082302e0401c012210238b704a7063
:109870000870704770b591f826401588002c1dbf00
:109880006d1c6c1065002c46558185786519aeb24b
:10989000b6f5807f21da147355734478ed00ad1d61
:1098a00064009473e4b215fb04f45480007813fb55
:1098b00000f0108180b210fa84f35b1e93fbf0f489
:1098c00094809588d58091f8260010b19188490040
:1098d00091809088b0f5007f01db002070bd0120f1
:1098e00070bd70b5d6881489957b06236643b6b2e1
:1098f00003fb1566ed0096fbf5f39db2b5f5807f91
:1099000001db002070bd53738078537b984234bfd5
:10991000181a0020107391f82600137b00b15b0029
:10992000538150891080012070bd2de9f84185b028
:109930000446a18800293ed004f123066946307808
